:1000000019C048C33DC331C030C02FC02EC02DC061
:100010002CC04AC32AC029C028C027C026C025C07A
:10002000A3C223C022C021C020C01FC01EC01DC04B
:1000300034C41BC011241FBECFEFD2E0DEBFCDBF42
:1000400011E0A0E0B1E0E4EEF9E002C005900D920D
:10005000AE30B107D9F722E0AEE0B1E001C01D92A9
:10006000A035B207E1F7EAD0BBC4CACF8F929F9206
:10007000AF92BF92CF92DF92EF92FF92CF93DF9336
:1000800080E01CD39C01A2E2B5E09ED438EE832E22
:1000900033E0932EA12CB12CA501940173D46901F6
:1000A0007A0181E00BD39C01A2E2B5E08DD4A501D9
:1000B000940168D42C153D0508F043C0C21AD30A38
:1000C000D0921801C092170181E0F8D29C01A2E2FF
:1000D000B5E07AD428EE822E23E0922EA12CB12C0A
:1000E000A50194014FD469017A0182E0E7D29C0115
:1000F000A2E2B5E069D4A501940144D42C153D05D4
:1001000018F5C21AD30AD0922401C092230182E0CA
:10011000D5D29C01A2E2B5E057D428EE33E040E00E
:1001200050E030D430931E0120931D01DF91CF9118
:10013000FF90EF90DF90CF90BF90AF909F908F9007
:100140000895C12CD12CBCCFC12CD12CDCCF8EDF9B
:1001500080911701909118012091060130910701BB
:100160002817390768F42B9A8091020190910301B6
:100170009093260180932501809117019091180199
:1001800020910401309105018217930738F4809182
:10019000250190912601892B09F44EC080912301FD
:1001A0009091240120910601309107012817390709
:1001B00068F42C9A809102019091030190931601AA
:1001C00080931501809123019091240120910401D5
:1001D000309105018217930730F4809115019091B9
:1001E0001601892B39F180911D0190911E012091FA
:1001F0000601309107012817390768F42D9A80917C
:100200000201909103019093200180931F0180913E
:100210001D0190911E01209104013091050182176A
:10022000930738F480911F0190912001892B09F4E4
:100230002D9808952C98D7CF2B98B0CFA89599E2F8
:1002400088E10FB6F894A895809360000FBE909354
:10025000600088E384B98CE68AB983E085BD16BC6A
:1002600081E080936E00B9D245D283B7817F8660EA
:1002700083BF789485E880937A008AE090E02FEF3E
:1002800030E742E0215030404040E1F700C000003C
:100290000197A9F782E0C82ED12C94E0B92E04EF83
:1002A00011E023E0922E32E0A32E42E3E42EF12C63
:1002B00088248394A89544D280911201823009F455
:1002C00083C0833008F09BC0882309F4E7C08130E5
:1002D00009F046C03CDF80910E0190910F01C39759
:1002E000E8F080910A0190910B0120911701309163
:1002F00018012817390708F42FC1209123013091E4
:1003000024012817390708F427C120911D013091D5
:100310001E012817390708F41FC15B9A85B183FBBA
:10032000882780F9C82F80E0D82F2C9BEBC021961E
:100330002D990FC180E090E08C0F9D1F02970CF467
:10034000E3C05A98809100019091010190931401AB
:10035000809313014C9B43C01092110180911201B4
:1003600090911001992309F440C0843009F459C0D8
:10037000833009F4C1C0B09211011093220100939F
:10038000210194E09093120110920F0110920E013E
:10039000913091F1923009F449C0943009F446C08B
:1003A000911102C05E9A5D989FEF20E732E0915074
:1003B00020403040E1F700C00000A895C1D18091F5
:1003C0001201823009F07DCF2B982C982D985B98E4
:1003D0008091210190912201892B09F442C08091E2
:1003E0001201909110019111C0CF909111019813B9
:1003F000C9CF982F913071F65E985D9AD5CF833032
:1004000061F1843009F0ACCF20910E0130910F01E1
:10041000293C310510F0909211019091100199231F
:1004200021F390911101943009F0ACCF5E98809146
:10043000210190912201892B09F4B5CF80911901F6
:1004400090911A01892B09F0AFCF5D9987C05D9A11
:10045000D0921A01C0921901A7CF2B982C982D98F1
:100460005B985E985D9884B7877F84BF14BE0FB693
:10047000F894A89580916000886180936000109244
:1004800060000FBE83B7816083BFF894889583B7FF
:100490008E7F83BF789480911201A3CF58DE809124
:1004A0000C0190910D01209117013091180128172E
:1004B0003907A8F02091230130912401281739072A
:1004C00070F020911D0130911E012817390738F076
:1004D0004C9946C0809211018091120141CFA092A7
:1004E0001101F0922201E092210110921A01109262
:1004F00019018091120134CF90911101933009F0CC
:1005000041CF52CF2D9925C08091080190910901CA
:1005100020911701309118012817390708F011CFE1
:1005200020912301309124012817390708F009CFC1
:1005300020911D0130911E012817390708F001CFC5
:100540008091130190911401892B09F003CF5A9ADD
:1005500001CF81E090E0F0CE5B98E0CE5D9878CF5F
:100560005B9A80911201FCCE1F920F920FB60F92F0
:1005700011248F939F9380911B0190911C01C09730
:1005800008F46EC010921C0110921B018091210191
:1005900090912201892B49F08091210190912201B3
:1005A00001979093220180932101809119019091EC
:1005B0001A01892B49F08091190190911A01019734
:1005C00090931A0180931901809125019091260141
:1005D000892B49F0809125019091260101979093F4
:1005E0002601809325018091150190911601892B98
:1005F00049F0809115019091160101979093160191
:100600008093150180911F0190912001892B49F061
:1006100080911F0190912001019790932001809378
:100620001F018091130190911401892B49F0809151
:100630001301909114010197909314018093130179
:1006400080910E0190910F01019690930F0180937C
:100650000E019F918F910F900FBE0F901F901895D4
:1006600080911B0190911C01019690931C01809335
:100670001B019F918F910F900FBE0F901F901895A7
:100680001F920F920FB60F9211240F900FBE0F9072
:100690001F9018951F920F920FB60F9211240F9072
:1006A0000FBE0F901F9018951F920F920FB60F92CA
:1006B00011240F900FBE0F901F90189580648093A7
:1006C0007C0087EC90E00197F1F700C0000080917A
:1006D0007A00806480937A0080917A0086FDFCCF56
:1006E00080917A00806180937A0080917800909167
:1006F00079000895E0E5F1E020E037E0822F98E00E
:1007000003C0880F915031F087FFFBCF880F8327FC
:100710009150D1F781932F5F82E0E035F80771F7B0
:10072000089590913A01E92FF0E0E05BFE4F2081BF
:10073000821308959B30E9F781E0809310010895BA
:1007400080913901882309F444C080914E018823A7
:1007500009F440C0E4E4F1E08091120180839091BB
:1007600017018091180191838283909123018091D8
:1007700024019383848390911D0180911E019583B0
:10078000868380914E019F01295F3F4FA0E0811138
:100790000CC08191A827B0E0A05BBE4FAC912E1792
:1007A0003F07B9F7A09329010BC08191A827B0E0BA
:1007B000A05BBE4FAC91E217F307B9F7A0932B01F2
:1007C00090914E0181E0911180E080932701109279
:1007D00039010895EFE2F1E0BFCF80E58093BA00E0
:1007E0001092BB0085EC8093BC0010924F011092D8
:1007F0002C0181E08093390110924E01089590916F
:100800004F0191110FC081110CC082E480932C0123
:100810000895E0914F0180912C01F0E0E75CFE4FDC
:100820008083089590914F01983CB9F090914F01C9
:100830009923B9F390914F019B3098F78111E9CF3B
:1008400080914E01E0914F01F0E08823E9F0E25DF4
:10085000FE4F808180932C01089581111BC08091EF
:100860004E01882361F08091290180932C0181E061
:10087000809339018091270180934E0108958091E2
:100880002B0180932C01F3CFED5BFE4F8081809391
:100890002C01089580912C0144CF1F920F920FB626
:1008A0000F9211242F933F934F935F936F937F93F6
:1008B0008F939F93AF93BF93EF93FF938091B90072
:1008C000887F8093280180912801803809F446C0F0
:1008D000D0F48823A1F110922A018091BC00806895
:1008E0008093BC00FF91EF91BF91AF919F918F9149
:1008F0007F916F915F914F913F912F910F900FBE1C
:100900000F901F901895883A69F0883B59F0803A0B
:1009100011F780912A01823001F781E070DF109297
:100920002A01DBCF80912A018130B9F680E067DFB0
:1009300080912C018093BB0010922A01CECF809130
:10094000BC0080698093BC0080912D0190912E01A4
:10095000019690932E0180932D01C4CF80912A019E
:10096000811108C08091BB0080934F0181E080938A
:100970002A01B3CF8091BB0080932C0182E0809349
:100980002A01ABCFA1E21A2EAA1BBB1BFD010DC091
:10099000AA1FBB1FEE1FFF1FA217B307E407F5072F
:1009A00020F0A21BB30BE40BF50B661F771F881F0B
:1009B000991F1A9469F760957095809590959B01A1
:1009C000AC01BD01CF010895A29FB001B39FC0014A
:1009D000A39F01D0B29F700D811D1124911D089518
:0409E000F894FFCFB9
:0E09E40058020A009A019F01A4015401360135
:00000001FF
